:100000000C9440000C945D000C945D000C945D0019
:100010000C945D000C9459030C945D000C945D00ED
:100020000C945D000C945D000C945D000C94D9035D
:100030000C945D000C945D000C94A7030C945D007F
:100040000C945D000C945D000C945D000C945D00BC
:100050000C945D000C945D000C945D000C945D00AC
:100060000C945D000C945D00010201030104020385
:10007000020402050304030503060405040605063D
:1000800011241FBECFEFD4E0DEBFCDBF11E0A0E052
:10009000B1E0E6E8F9E002C005900D92A430B107A6
:1000A000D9F721E0A4E0B1E001C01D92A931B20767
:1000B000E1F70E947E030C94C1040C940000389870
:1000C000409880E480937C0080917C00807E8093C7
:1000D0007C0087E080937A0080917A00806880932A
:1000E0007A0080917A00806480937A0080917A000F
:1000F00086FDFCCF809178009091790008958091E1
:100100007A00806480937A0080917A0086FDFCCF2B
:1001100080917800909179000895FF920F931F933A
:10012000CF93DF93C0E0D0E00C2F1C2F1F5FCE01D8
:10013000805090400E949004F82E212F2F77822F1C
:1001400090E0805090400E949004F3944F2D50E036
:10015000282F30E04217530729F42196C038D105E3
:1001600019F7012F802FDF91CF911F910F91FF90F1
:1001700008950E948D008093040190E0880F991FDC
:1001800080589F4F0E9498049F700895FF920F938C
:100190001F93CF93DF93EC01F09004010F2D10E03B
:1001A000C801880F991F80589F4F0E9498048C1790
:1001B0009D0711F1C801805090400E949004182FB3
:1001C00021E02F0D2F7720930401822F90E0880FDC
:1001D000991FBE0180589F4F0E94AC0461E0610FDF
:1001E0008091040190E080509040DF91CF911F9169
:1001F0000F91FF900C949E04DF91CF911F910F916E
:10020000FF9008959BB19F609BB99BB121E030E0C6
:10021000062E01C0220F0A94EAF7209529232BB954
:10022000813069F038F0823099F496B195FB9927C6
:1002300090F90BC093B192FB992790F906C093B146
:1002400092959F709827917004C081E0982701C013
:1002500090E0842F880F892B8F7047FF04C088237C
:1002600029F0806808958F3009F48FE8089587B1E8
:10027000817F87B98AB18F788AB984B18B7E84B93E
:100280003D9885B1846185B9459A8AB18F608AB9F4
:100290008BB18F608BB9089580910101909102011B
:1002A00008959093020180930101089580930001C5
:1002B000089588B1817F88B98BB18F788BB987B168
:1002C000817F87B98AB18F788AB90895FC01EE0FD2
:1002D000FF1FE859FF4F4491FC01EE0FFF1FE75944
:1002E000FF4FE4916623E9F1443078F08AB121E0D0
:1002F00030E0042E01C0220F0A94EAF7822B8AB95B
:100300008BB1209528232BB90EC087B121E030E0B6
:10031000042E01C0220F0A94EAF7822B87B988B114
:100320002095282328B9E43070F08AB121E030E02C
:100330000E2E01C0220F0A94EAF7822B8AB98BB1E4
:10034000822B8BB9089587B121E030E00E2E01C0D9
:10035000220F0A94EAF7822B87B988B1822B88B9D9
:100360000895443070F08AB121E030E0042E01C0DD
:10037000220F0A94EAF7822B8AB98BB1822B8BB9B0
:100380000DC087B121E030E0042E01C0220F0A9495
:10039000EAF7822B87B988B1822B88B9E43078F0EC
:1003A0008AB121E030E00E2E01C0220F0A94EAF754
:1003B000822B8AB98BB1209528232BB9089587B158
:1003C00021E030E00E2E01C0220F0A94EAF7822BC2
:1003D00087B988B12095282328B90895CF930E9422
:1003E0005901C0910801209100018C2F90E0C213A7
:1003F00002C060E011C021E030E00C2E02C0220FEC
:10040000331F0A94E2F74091010150910201242325
:100410003523232B19F061E00E946601CF5FCC30B9
:1004200018F4C093080102C010920801CF910895FA
:100430001F93CF93DF931F92CDB7DEB7E0910501F5
:10044000F0E0E75FFE4F1081412F6091060180913F
:1004500007010E940201182717FF23C087FF21C050
:1004600089830E94EE03409101015091020121E035
:1004700030E00090050102C0220F331F0A94E2F71A
:10048000B901642375238981672B19F4242B352B3B
:1004900004C0209530952423352330930201209306
:1004A000010190910501E92FF0E0E75FFE4F8083A5
:1004B0009F5F90930501809106018F5F80930601F5
:1004C000843068F010920601809107018F5F80935D
:1004D0000701833020F010920701109205010F9060
:1004E000DF91CF911F9108950E94910384B18360A1
:1004F00084B985B1836085B908951F93CF93DF9345
:10050000299A289890E1899FE0011124D0611BB1BC
:100510008BB18F608BB981E00E949E038D2F0E946A
:1005200098038C2F0E94980380E00E949E031BB9C1
:10053000289A2998DF91CF911F91089580B78068FC
:1005400080BF3C98449A57985F980E94B7030E94D6
:1005500074020E945F000E943701E8E6F0E08081AB
:1005600084608083EDE6F0E0808180688083789409
:1005700008959F92AF92BF92CF92DF92EF92FF9237
:100580000F931F93CF93DF930E947F00EC0121967E
:100590008091160190911701BE01681B790B77FFBE
:1005A00003C0719561957109882777FD8095982F13
:1005B0000E94310429E838E848E850E40E942B04FE
:1005C00087FD6BC00E944C01FC01009729F483E673
:1005D0000E94560180E047C0CE01880F991F0896FF
:1005E00061E170E00E940304962E972F862F6CE045
:1005F00070E00E940304B62EA62E8CE0689F90182F
:10060000112420E030E0092D10E04CE0E42EF12C24
:10061000CC24C394D12CC901800F911FB7010E9433
:100620001704A60102C0440F551F8A95E2F74E2316
:100630005F23452B29F42F5F3F4F2D30310559F7AC
:10064000892D820F8C3020F08C50AA24A394AB0CFF
:10065000082F10E09CE0A99E000D111D11240E949E
:100660005601802F880F909115019817B1F0D09303
:100670001701C09316018093150160E00E947D026E
:10068000DF91CF911F910F91FF90EF90DF90CF906E
:10069000BF90AF909F900C94D403DF91CF911F91A6
:1006A0000F91FF90EF90DF90CF90BF90AF909F9011
:1006B00008951F920F920FB60F9211242F933F931C
:1006C0004F935F936F937F938F939F93AF93BF935A
:1006D000EF93FF934F9B0E94B902FF91EF91BF915F
:1006E000AF919F918F917F916F915F914F913F91CA
:1006F0002F910F900FBE0F901F9018950E949E0291
:100700000E94B9000E9451010E9418020E94EE014D
:100710000E94F303349BF8CFF8940E94B9027894B6
:10072000F3CF84B1886284B982E18CBD1DBC089589
:100730008EBD0DB407FEFDCF8EB50895882319F048
:100740008CB5806402C08CB58F7B8CBD08951F92E0
:100750000F920FB60F9211248F9385B58A7F85BDB6
:10076000299A8F910F900FBE0F901F90189582E0DD
:1007700084BD80EF87BDEEE6F0E0808182608083FB
:10078000E1E8F0E0808185608083808188608083FB
:100790008BE49CE49093890080938800EFE6F0E07E
:1007A000808182608083089516BC85B5856085BD93
:1007B00008951F920F920FB60F9211248F9380917C
:1007C00018018F3028F4809118018F5F80931801F1
:1007D0008F910F900FBE0F901F90189510920301EC
:1007E0001092180108958091030181110BC080912E
:1007F00018018F3038F00E944C010E94C60081E041
:10080000809303010895AA1BBB1B51E107C0AA1FD7
:10081000BB1FA617B70710F0A61BB70B881F991FA1
:100820005A95A9F780959095BC01CD01089597FB45
:10083000072E16F4009407D077FD09D00E94030418
:1008400007FC05D03EF4909581959F4F08957095D3
:1008500061957F4F089540D008F481E00895E894B1
:1008600009C097FB3EF490958095709561957F4FF8
:100870008F4F9F4F9923A9F0F92F96E9BB279395A6
:10088000F695879577956795B795F111F8CFFAF4B6
:10089000BB0F11F460FF1BC06F5F7F4F8F4F9F4FE7
:1008A00016C0882311F096E911C0772321F09EE845
:1008B000872F762F05C0662371F096E8862F70E0AB
:1008C00060E02AF09A95660F771F881FDAF7880F85
:1008D0009695879597F90895990F0008550FAA0BDB
:1008E000E0E8FEEF16161706E807F907C0F0121643
:1008F0001306E407F50798F0621B730B840B950B46
:1009000039F40A2661F0232B242B252B21F408959A
:100910000A2609F4A140A6958FEF811D811D089537
:10092000F999FECF92BD81BDF89A992780B50895B7
:10093000A8E1B0E042E050E00C94B304262FF9990E
:10094000FECF1FBA92BD81BD20BD0FB6F894FA9AB2
:10095000F99A0FBE019608950E949E04272F0C94C9
:100960009F04DC01CB01FC01F999FECF06C0F2BD6A
:10097000E1BDF89A319600B40D9241505040B8F75D
:060980000895F894FFCF7A
:0409860002FF0F015C
:00000001FF
